:100000000C9472000C948F000C948F000C942D05AE
:100010000C948F000C948F000C948F000C948F0024
:100020000C948F000C948F000C948F000C948F0014
:100030000C948F000C948F000C948F000C948F0004
:100040000C948F000C948F000C948F000C948F00F4
:100050000C948F001F080D08FC07EA07FB07FB073D
:10006000FB07FB07FB07FB07FB07FB07FB07FB0780
:10007000FB07FB07FB07FB07FB07FB07FB07FB0770
:10008000FB07FB07FB07FB07FB07FB07FB07FB0760
:10009000FB07FB071F080D08FC07EA07CE08C0088E
:1000A000B208A308B108B108B108B108B108B10895
:1000B000B108B108B108B108B108B108B108B10878
:1000C000B108B108B108B108B108B108B108B10868
:1000D000B108B108B108B108B108B108CE08C0082C
:1000E000B208A30811241FBECFE5D8E0DEBFCDBF04
:1000F00011E0A0E6B0E0E8EBF6E102C005900D9259
:10010000AC3DB107D9F722E0ACEDB1E001C01D92E2
:10011000A134B207E1F70E94BF090C945A0B0C946A
:10012000000002C0000001970097E1F7089507C0A2
:10013000E9EFF0E03197F1F700C000000197009778
:10014000B9F708952BB3982F907F2F70922B9BBBFC
:10015000D898D998DA9A0000DA9824E130E00000C3
:1001600021503040E1F79BB38295807F9F70892BAF
:100170008BBBDA9A0000DA9808958FEF8ABB80ED86
:1001800097E000000197E9F783E30E94A20084E66C
:1001900090E000000197E9F782E30E94A20084E664
:1001A00090E000000197E9F788E20E94A20084E64F
:1001B00090E000000197E9F78CE00E94A20084E63D
:1001C00090E000000197E9F781E00E94A20080ED35
:1001D00097E000000197E9F786E00E94A20084E61C
:1001E00090E000000197E9F708958FEF8ABBDA9855
:1001F00080E29EE400000197E9F783E00E94A200FC
:1002000080E197E200000197E9F783E00E94A200F5
:1002100088EE93E000000197E9F783E00E94A200D6
:1002200088EE93E000000197E9F782E00E94A200C7
:1002300088EE93E000000197E9F708952BB3982F1B
:10024000907F2F70922B9BBBD89AD998DA9A000096
:10025000DA989BB38295807F9F70892B8BBBDA9A4B
:100260000000DA980895CF93DF9300D000D0CDB787
:10027000DEB790E8998390EC9A8394E99B8394EDA0
:100280009C838150FE01E60FF11D9081890F0E9431
:10029000A20084E690E000000197E9F70F900F902C
:1002A0000F900F90DF91CF9108958FE00E94A200F0
:1002B00084E690E000000197E9F708958CE00E9441
:1002C000A20084E690E000000197E9F7089580E13C
:1002D0000E94A20084E690E000000197E9F70895EB
:1002E00084E10E94A20084E690E000000197E9F713
:1002F0000895FC0120812223E1F050E04BB3322F1E
:10030000307F4F70342B3BBBD89AD998DA9A0000D3
:10031000DA983BB32295207F3F70232B2BBBDA9AD0
:100320000000DA985F5FFC01E50FF11D20812223B8
:1003300029F7089581E00E94A20080ED97E0000077
:100340000197E9F780E80E94A20084E690E00000AF
:100350000197E9F70895CF93DF93EB01883008F018
:10036000AEC0880F880F880F805C0E94A200888131
:100370002BB3982F907F2F70922B9BBBD89AD99834
:10038000DA9A0000DA989BB38295807F9F70892B60
:100390008BBBDA9A0000DA9889812BB3982F907F73
:1003A0002F70922B9BBBD89AD998DA9A0000DA98D2
:1003B0009BB38295807F9F70892B8BBBDA9A00005C
:1003C000DA988A812BB3982F907F2F70922B9BBB4A
:1003D000D89AD998DA9A0000DA989BB38295807FF0
:1003E0009F70892B8BBBDA9A0000DA988B812BB334
:1003F000982F907F2F70922B9BBBD89AD998DA9A1E
:100400000000DA989BB38295807F9F70892B8BBB0D
:10041000DA9A0000DA988C812BB3982F907F2F7096
:10042000922B9BBBD89AD998DA9A0000DA989BB3A2
:100430008295807F9F70892B8BBBDA9A0000DA98B7
:100440008D812BB3982F907F2F70922B9BBBD89AC6
:10045000D998DA9A0000DA989BB38295807F9F70D2
:10046000892B8BBBDA9A0000DA988E812BB3982FF8
:10047000907F2F70922B9BBBD89AD998DA9A000064
:10048000DA989BB38295807F9F70892B8BBBDA9A19
:100490000000DA988F812BB3982F907F2F70922BCA
:1004A0009BBBD89AD998DA9A0000DA989BB38295C8
:1004B000807F9F70892B8BBBDA9A0000DA98DF91DE
:1004C000CF9108950E94BD0080E861E040E00E9465
:1004D000970782E460E041E00E94DF0782E461E088
:1004E00041E00E94DF0782E463E041E00E94DF0711
:1004F00082E464E041E00E94DF0782E462E042E0DF
:100500000E94DF0785E063E00E941C09789489E17E
:1005100090E060E00E94080908950E949A0180E638
:1005200090E00E94790181E062E00E94330184E75B
:1005300090E00E94790108950E949A0183E890E07A
:100540000E94790181E062E00E9433018DE890E031
:100550000E9479010895AF92BF92CF92DF92EF92FD
:10056000FF920F931F93CF93DF93CDB7DEB76697BC
:100570000FB6F894DEBF0FBECDBF2CE0E22EF12CFB
:10058000EC0EFD1E6E010894C11CD11C3BE0A32E95
:10059000D701EA2D1D92EA95E9F7D601EA2D1D92C1
:1005A000EA95E9F70E949A0181E061E00E94330137
:1005B00080EA90E00E94790181E062E00E943301CC
:1005C0000E94550100E010E00E946509833291F01D
:1005D0008A3209F459C00A301105B1F3F701E00F6E
:1005E000F11F80830F5F1F4F8AE20E941E010B30B4
:1005F000110554F30E945E01B02E0E949A0181E021
:1006000061E00E94330184EB90E00E94790181E077
:1006100062E00E9433010E94550100E010E00E9458
:100620006509833289F08A32E9F10A301105B9F39C
:10063000F601E00FF11F80830F5F1F4F8AE20E94D7
:100640001E010B3011055CF30E945E01B016C1F172
:100650000E949A0181E061E00E94330188EC90E001
:100660000E94790181E062E00E94330189ED90E00F
:100670000E9479018FE39DE0A3E081509040A0406B
:10068000E1F700C0000084CF0115110509F49CCFEB
:100690000E94670180E20E941E010E9467010150D2
:1006A0001040A5CF0115110509F4B9CF0E946701CB
:1006B00080E20E941E010E94670101501040C1CFDC
:1006C000BB20B9F09C858981981711F6FE013D96F3
:1006D000DE0112968B2D81509F01280F311DC9011B
:1006E000E817F90731F031912D91321709F0B0CFA9
:1006F000F7CFF89481E090E06B2D0E940809BB20B1
:10070000C1F087018DE0C82ED12CCC0EDD1EBA942D
:10071000CB0CD11C92E0E92EF12CD8016D918D010A
:10072000C7010E9408090894E11CF11C0C151D0565
:10073000A1F778940E949A0188EE90E00E947901D6
:1007400081E062E00E9433018BEF90E00E9479012A
:100750008FE39DE0A3E081509040A040E1F700C00E
:10076000000066960FB6F894DEBF0FBECDBFDF91D6
:10077000CF911F910F91FF90EF90DF90CF90BF909E
:10078000AF900895421711F080E00895442399F046
:10079000FC013081FB0120813217B1F7DC01119699
:1007A000319680E08F5F841731F02D919191291758
:1007B000C9F380E0089581E00895AF92BF92CF928F
:1007C000DF92EF92FF920F931F93CF93DF93CDB7FA
:1007D000DEB72A970FB6F894DEBF0FBECDBF6E010D
:1007E0000894C11CD11C4AE0B42ED601EB2D1D92F9
:1007F000EA95E9F70E949A018AE091E00E94790166
:1008000081E062E00E9433010E94550100E010E0A7
:100810000E946509833289F08A32B9F10A301105E4
:10082000B9F3F601E00FF11F80830F5F1F4F8AE2DB
:100830000E941E010B3011055CF30E945E0181E0F5
:100840000E941509081789F6002369F176010E5FE9
:1008500012E003C01F5F101731F1D701AD907D0189
:10086000812F0E941509A816A9F30E949A018EE112
:1008700091E00E9479018FE39DE0A3E081509040D8
:10088000A040E1F700C00000B0CF0115110509F448
:10089000BFCF0E94670180E20E941E010E94670193
:1008A00001501040C7CF0E94AB022A960FB6F894B1
:1008B000DEBF0FBECDBFDF91CF911F910F91FF9093
:1008C000EF90DF90CF90BF90AF9008950F931F935C
:1008D000CF93DF938C010E945501C0E0D0E00E94CD
:1008E0006509833281F08A32B1F0CA30D105B9F39B
:1008F000F801EC0FFD1F808321968AE20E941E0101
:10090000CB30D10564F30E945E018C2FDF91CF9133
:100910001F910F910895209711F30E94670180E2C3
:100920000E941E010E9467012197EACFCF92DF92B9
:10093000FF920F931F93CF93DF9300D0CDB7DEB715
:10094000182F81E069837A830E94150969817A8171
:10095000811759F080E00F900F90DF91CF911F9198
:100960000F91FF90DF90CF900895882311F16B01D4
:1009700052E0F52EF80E12E003C01F5F1F15C9F0FC
:10098000D6010D916D01812F0E9415090817A9F359
:100990000E949A018EE191E00E9479018FE39DE02F
:1009A000A3E081509040A040E1F700C0000080E04B
:1009B000D2CF81E0D0CF82E463E041E00E9498088A
:1009C00082E460E041E00E94980882E461E040E057
:1009D0000E9498080E949A0184E291E00E947901A5
:1009E0008FE79AE1A6E081509040A040E1F700C077
:1009F000000082E463E040E00E94980889E190E012
:100A000060E00E940809089582E463E041E00E94EA
:100A1000980882E460E040E00E94980882E461E087
:100A200041E00E94980882E464E041E00E94980856
:100A3000C49A8FE79AE1A6E081509040A040E1F788
:100A400000C0000082E464E040E00E94980882E474
:100A500063E040E00E94980808951F920F920FB63D
:100A60000F9211242F933F934F935F936F937F9334
:100A70008F939F93AF93BF93EF93FF93F89482E488
:100A800063E041E00E94980882E460E040E00E9458
:100A9000980882E461E041E00E94980882E464E002
:100AA00041E00E949808C49A8FE79AE1A6E081503D
:100AB0009040A040E1F700C0000082E464E040E024
:100AC0000E94980882E463E040E00E9498087894CD
:100AD000FF91EF91BF91AF919F918F917F916F9116
:100AE0005F914F913F912F910F900FBE0F901F90EC
:100AF0001895EF92FF920F931F93CF93DF93CDB78B
:100B0000DEB72B970FB6F894DEBF0FBECDBF7E01C8
:100B10000894E11CF11C8AE0D7011D928A95E9F73F
:100B20000E949A0188E391E00E94790181E062E0ED
:100B30000E9433018DE491E00E9479018FE39DE0F2
:100B4000A3E081509040A040E1F700C000000E9467
:100B50009A018DE591E00E94790181E062E00E94B6
:100B600033010E94550100E010E00E9465098332C4
:100B700091F08A3209F47EC00A301105B1F3F70111
:100B8000E00FF11F80830F5F1F4F8AE20E941E015A
:100B90000B30110554F30E945E01998190539983A3
:100BA0008A8180538A838B8180538B838C8180538D
:100BB0008C838D8180538D838E8180538E838F8132
:100BC00080538F8388858053888789858053898760
:100BD0008A8580538A870A3009F05AC08BE19B8747
:100BE0000E9415099B859817B1F50A818CE10E9436
:100BF0001509081781F50B818DE10E941509081769
:100C000051F50C818EE10E941509081721F50D811F
:100C10008FE10E9415090817F1F40E8180E20E940D
:100C200015090817C1F40F8181E20E941509081700
:100C300091F4088582E20E941509081761F409857C
:100C400083E20E941509081731F40A8584E20E94A4
:100C5000150991E0081390E0892F2B960FB6F894B0
:100C6000DEBF0FBECDBFDF91CF911F910F91FF90DF
:100C7000EF9008950115110509F477CF0E946701DF
:100C800080E20E941E010E9467010150104080CF47
:100C90000E949A01802F90E06DED71E04AE050E0F3
:100CA0000E941A0B0E9479018FE39DE0A3E081501E
:100CB0009040A040E1F700C0000090E0CDCFCF937E
:100CC000DF9389E10E941509682F6F5F6093DC0153
:100CD00089E190E00E94080989E10E9415098330AA
:100CE00091F189E10E941509863069F189E10E943C
:100CF0001509893008F457C08AE190E06FEF0E942F
:100D000008090E9479058823E1F30E949A0181E98C
:100D100091E00E9479018AE190E060E00E94080978
:100D200089E190E060E00E9408098FE39DE0A3E084
:100D300081509040A040E1F700C000000E94AB024B
:100D4000DF91CF9108950E949A0181E061E00E94B5
:100D500033018EE691E00E94790181E062E00E9419
:100D600033018DE791E00E947901CBE3D0E08EE082
:100D700062E00E943301CE016DED71E04AE050E087
:100D80000E941A0B8DED91E00E94790187EA91E6AD
:100D90000197F1F700C00000219749F70E94EF0684
:100DA000DF91CF9108950E949A0181E061E00E9455
:100DB00033018EE691E00E94790181E062E00E94B9
:100DC000330186EA91E00E9479018FE39DE0A3E080
:100DD00081509040A040E1F700C00000DFCFDF92DB
:100DE000EF92FF920F931F93CF93DF93CDB7DEB7B0
:100DF0002B970FB6F894DEBF0FBECDBF7E010894CF
:100E0000E11CF11C8BE0D7011D928A95E9F70E9445
:100E10009A0185EB91E00E94790181E062E00E94F5
:100E200033010E94550100E010E00E946509833201
:100E300089F08A3231F10A301105B9F3F701E00F78
:100E4000F11F80830F5F1F4F8AE20E941E010B304B
:100E500011055CF30E945E0181E00E9415090817EC
:100E6000E9F00E945F062B960FB6F894DEBF0FBE26
:100E7000CDBFDF91CF911F910F91FF90EF90DF9049
:100E800008950115110589F20E94670180E20E9410
:100E90001E010E94670101501040D9CF0023F1F0DC
:100EA0000E5F12E003C01F5F1017C1F0F701D19071
:100EB0007F01812F0E941509D816A9F30E949A017B
:100EC0008EE191E00E9479018FE39DE0A3E08150E3
:100ED0009040A040E1F700C00000C3CF82E463E08F
:100EE00041E00E94980882E460E041E00E94980896
:100EF00082E461E040E00E9498080E949A0184E246
:100F000091E00E9479018FE79AE1A6E0815090403C
:100F1000A040E1F700C0000082E463E040E00E94EE
:100F2000980889E190E060E00E9408099CCF379A18
:100F300096B1987F96B9803109F43FC0C0F08034F3
:100F400091F1803849F1803291F186B186B987B14B
:100F50008F7387B96130B9F0613010F1623001F5FB
:100F600087B1806C87B9411111C03D9808958430D4
:100F700011F1883069F0823041F7309A87B18F7370
:100F800087B9613049F73E9A442379F33D9A089531
:100F900086B1836086B9DBCF86B1876086B9D7CF4B
:100FA00087B187B9E0CF86B1866086B9D0CF86B1E8
:100FB000856086B9CCCF319ACACF329AC8CF90E03B
:100FC000FC01E154F109E432F105A8F4E65DFF4FBC
:100FD0000C94140B442309F44EC0423009F48AC027
:100FE000413049F421B381E090E001C0880F6A9557
:100FF000EAF7822B81BB0895442391F1423009F432
:1010000088C04130C1F724B381E090E001C0880F6F
:101010006A95EAF7822B84BB0895442309F441C002
:10102000423009F449C0413031F727B381E090E004
:1010300001C0880F6A95EAF7822B87BB0895442385
:1010400029F1423009F447C04130A9F62AB381E0C2
:1010500090E001C0880F6A95EAF7822B8ABB089559
:1010600024B381E090E001C0880F6A95EAF780958B
:10107000822384BB089521B381E090E001C0880FF2
:101080006A95EAF78095822381BB08952AB381E0AF
:1010900090E001C0880F6A95EAF7809582238ABBA9
:1010A000089527B381E090E001C0880F6A95EAF7C0
:1010B0008095822387BB089527B381E090E001C02B
:1010C000880F6A95EAF7982F9095922397BB98B36B
:1010D000892B88BB08952AB381E090E001C0880F76
:1010E0006A95EAF7982F909592239ABB9BB3892B28
:1010F0008BBB089521B381E090E001C0880F6A9511
:10110000EAF7982F9095922391BB92B3892B82BBDB
:10111000089524B381E090E001C0880F6A95EAF752
:10112000982F9095922394BB95B3892B85BB0895F6
:1011300090E0FC01E154F109E432F10590F4E25B46
:10114000FF4F0C94140B442309F441C0413049F47F
:1011500022B381E090E001C0880F6A95EAF7822B04
:1011600082BB0895442341F14130D9F725B381E092
:1011700090E001C0880F6A95EAF7822B85BB08953D
:101180004423D9F1413069F728B381E090E001C0F0
:10119000880F6A95EAF7822B88BB0895442311F1E2
:1011A0004130F9F62BB381E090E001C0880F6A95D9
:1011B000EAF7822B8BBB089525B381E090E001C054
:1011C000880F6A95EAF78095822385BB089522B33C
:1011D00081E090E001C0880F6A95EAF7809582234C
:1011E00082BB08952BB381E090E001C0880F6A951F
:1011F000EAF7809582238BBB089528B381E090E0C5
:1012000001C0880F6A95EAF78095822388BB08950C
:101210002CB39FBB8EBB6DBBE29AE19A87EA91E645
:101220000197F1F700C0000008959CB390E09FBBC8
:101230008EBBE09A8DB308958630C9F0873059F09F
:10124000853009F00895633041F1623051F18BB778
:1012500080628BBF08956623D9F0613031F163302D
:1012600061F16230B1F485B78C6085BF12C066232E
:1012700051F06130F1F0633021F1623029F485B72B
:10128000836085BF01C015BE8BB780648BBF089596
:1012900015BE8BB780688BBF089585B78F7B85BFE0
:1012A000D6CF85B7806485BFD2CF85B7846085BF30
:1012B000F0CF85B7816085BFE7CF85B7886085BFF0
:1012C000E8CF85B7826085BFDFCF80EF84BB8FEF2B
:1012D00085BB8FE083BB85B38F7085BB83B38F7075
:1012E0008F30C9F787E893E10197F1F700C000005C
:1012F00083B38F708F30B1F787E893E10197F1F7EF
:1013000000C0000083B38F708F3061F79FEE2FED28
:101310003FEB4FE70FC025BB83B38F708F3031F5A4
:1013200035BB83B38F708F30F1F445BB83B38F70BF
:101330008F30B1F495BB83B38F708F3061F320E0B1
:1013400030E0220F331F220F331FF901E553FE4F08
:101350008E3079F08D3079F08B3079F0838108957B
:1013600023E030E0EECF22E030E0EBCF21E030E0D0
:10137000E8CF808108958181089582810895CF9377
:10138000DF93CDB7DEB72B970FB6F894DEBF0FBE55
:10139000CDBF0E9462026E010894C11CD11C6AE09C
:1013A000B62E7BE0A72E8AE10E9415098F3F09F433
:1013B00060C00E949A0180E690E00E94790181E07D
:1013C00062E00E94330184E790E00E9479010E946C
:1013D00065090E949A0183E890E00E94790181E00A
:1013E00062E00E9433018DE890E00E9479010E9442
:1013F0006509982F9153923060F7D601813309F433
:1014000066C0EB2D1D92EA95E9F70E949A018AE0E9
:1014100091E00E94790181E062E00E9433010E9424
:10142000550100E010E00E946509833291F08A3294
:1014300009F43FC00A301105B1F3F601E00FF11FC6
:1014400080830F5F1F4F8AE20E941E010B3011053F
:1014500054F30E945E0181E00E941509081709F407
:1014600074C00E94DD038AE10E9415098F3F09F0D4
:10147000A0CF0E9479058823E1F30E949A0181E9B7
:1014800091E00E9479018AE190E060E00E94080901
:1014900089E190E060E00E9408098FE39DE0A3E00D
:1014A00081509040A040E1F700C000000E94AB02D4
:1014B00080CF0115110509F4B6CF0E94670180E2C3
:1014C0000E941E010E94670101501040BFCFEA2D0B
:1014D0001D92EA95E9F70E949A0185EB91E00E943E
:1014E000790181E062E00E9433010E94550100E031
:1014F00010E00E946509833289F08A32C9F00A300F
:101500001105B9F3F601E00FF11F80830F5F1F4F44
:101510008AE20E941E010B3011055CF30E945E01FD
:1015200081E00E941509081791F10E945F063BCFE8
:1015300001151105F1F20E94670180E20E941E016F
:101540000E94670101501040E6CF002309F440C01B
:1015500076010E5F12E003C01F5F1017C9F1D701BB
:101560009D907D01812F0E9415099816A9F30E9474
:101570009A018EE191E00E9479018FE39DE0A3E062
:1015800081509040A040E1F700C000006ACF0023E6
:1015900011F176010E5F12E003C01F5F1017D9F042
:1015A000D7019D907D01812F0E9415099816A9F3FE
:1015B0000E949A018EE191E00E9479018FE39DE003
:1015C000A3E081509040A040E1F700C00000ADCF03
:1015D0000E94AB02E8CE82E463E041E00E949808FA
:1015E00082E460E041E00E94980882E461E040E02B
:1015F0000E9498080E949A0184E291E00E94790179
:101600008FE79AE1A6E081509040A040E1F700C04A
:10161000000082E463E040E00E94980889E190E0E5
:1016200060E00E940809BFCEEE0FFF1F0590F49105
:10163000E02D09944532510520F4423010F00C940D
:10164000250BFB011082CB010895BB274A3031F4F2
:10165000992322F4BDE2909581959F4F0C94310B14
:10166000BB27FB015527AA27880F991FAA1FA4177C
:1016700010F0A41B83955051B9F7A05DAA3308F070
:10168000A95DA193009779F7B111B1931192CB01A4
:101690000C944A0BDC01FC01672F71917723E1F771
:1016A000329704C07C916D9370836291AE17BF072F
:0816B000C8F30895F894FFCF80
:1016B8002050617373776F72642D6C6F636B206455
:1016C8006F6F720020202020202057656C636F6D9B
:1016D8006521002831294C6F672D696E0028322951
:1016E8004368616E67652050617373776F72640039
:1016F800596F7572206E65772050617373776F72BA
:10170800643A200052652D656E74657220506173CD
:1017180073776F72643A20004661696C6564206F64
:101728007065726174696F6E00506C7A2C20547207
:101738007920616761696E002020596F7572207089
:10174800617373776F7264206973002020202020F2
:1017580020697320736176656400456E7465722034
:101768006F6C642070617373776F72643A00627291
:1017780065616B002054686520646F6F722069731F
:10178800206F70656E6564002054686520646F6F13
:101798007220697320636C6F7365642000202020B9
:1017A800207065726D616E656E746C7900456E743B
:1017B80065722050554B20636F64653A200057725C
:1017C8006F6E672070617373776F726400547279FB
:1017D80020616761696E20696E202020205365634F
:1017E800005375636365737366756C206F706572FB
:1017F8006174696F6E00506C7A2C20747279206164
:101808006761696E00456E74657220796F75722024
:1018180070617373776F72643A20003132332F34FA
:0C18280035363D3738392D2A30232B008F
:00000001FF
